:100000000C947A110C94A2110C94A2110C94A211CC
:100010000C94A2110C94A2110C94A2110C94A21194
:100020000C94A2110C94A2110C947E200C94F0203C
:100030000C94A2110C94A2110C94A2110C94A21174
:100040000C94A2110C9498170C94A2110C94A21168
:100050000C94A2110C94A2110C94A2110C943420B3
:100060000C94A2110C94A2110C94A2110C94A21144
:100070000C94A2110C94A2110C94A2110C94A21134
:100080000C94A2110C94A2110C94A2110C94A21124
:100090000C94A2110C94A2110C94A2110C94A21114
:1000A0000C94A2110C94A2110C94A211121A061A0B
:1000B000061A211A231A251A271A291A2B1A2D1A59
:1000C000361A411A001000108001000410010004CB
:1000D00008010004040100042001000440010004A0
:1000E000200100044001000480010004100100040C
:1000F000080100040401000420010008200140015F
:100100000008800108010010FFFF410E00010203FA
:100110000A0B0405040806070609CC0000BF04C149
:100120007F7FB20000000000007F7F7F000000B0F2
:1001300000C17F7F7F0000000C00007F7F7F0000F8
:10014000001000C77F7FB20000001000077F7F7F94
:10015000000000B000C17F7F7F0000000C00007F26
:100160007F7F000000B000C17F7FB0000000000072
:10017000007F7F7F000000B000C17F7FB2000000E1
:100180000000007F7F7F0000001000C77F7F7F009E
:1001900000001C00077F7F7F000000B000C17F7F50
:1001A000B70000000C00007F7F7F0000000000000F
:1001B0007F7F7F0000000000007F7F7F000000B095
:1001C00000C17F7FB70000000000007F7F7F00003C
:1001D000001000C77F7FB50000001000077F7F7F01
:1001E000000000B000C17F7FB20000000000007F6F
:1001F0007F7F000000B000C17F7FB50000000C00D1
:10020000007F7F7F000000B000C17F7FB50000004D
:100210000000007F7F7F0000001000C77F7FB200DA
:1002200000001000077F7F7F000000BC00C17F7FBF
:100230007F0000000000007F7F7F000000B000C151
:100240007F7FB20000000000007F7F7F000000B0D1
:1002500000C17F7F7F0000000C00007F7F7F0000D7
:10026000001000C77F7FB20000001000077F7F7F73
:10027000000000B000C17F7F7F0000000C00007F05
:100280007F7F000000B000C17F7FB0000000000051
:10029000007F7F7F000000B000C17F7FB2000000C0
:1002A0000000007F7F7F0000001000C77F7F7F007D
:1002B00000001C00077F7F7F000000B000C17F7F2F
:1002C000B70000000C00007F7F7F000000000000EE
:1002D0007F7F7F0000000000007F7F7F000000B074
:1002E00000C17F7FB70000000000007F7F7F00001B
:1002F000001000C77F7FB00000001000077F7F7FE5
:10030000000000B000C17F7FBC0000000000007F43
:100310007F7F000000B000C17F7FB10000000000BF
:10032000007F7F7F000000B000C17F7FBD00000024
:100330000000007F7F7F0000001000C77F7FC100AA
:1003400000001000077F7F7F000000B000C17F7FAA
:10035000BE0000000000007F7F7F000000BF04C1DE
:100360007F7FB20000000000007F7F7F000000B0B0
:1003700000C17F7F7F0000000C00007F7F7F0000B6
:10038000001000C77F7FB20000001000077F7F7F52
:10039000000000B000C17F7F7F0000000C00007FE4
:1003A0007F7F000000B000C17F7FB0000000000030
:1003B000007F7F7F000000B000C17F7FB20000009F
:1003C0000000007F7F7F0000001000C77F7F7F005C
:1003D00000001C00077F7F7F000000B000C17F7F0E
:1003E000B70000000C00007F7F7F000000000000CD
:1003F0007F7F7F0000000000007F7F7F000000B053
:1004000000C17F7FB70000000000007F7F7F0000F9
:10041000001000C77F7FB50000001000077F7F7FBE
:10042000000000B000C17F7FB20000000000007F2C
:100430007F7F000000B000C17F7FB50000000C008E
:10044000007F7F7F000000B000C17F7FB50000000B
:100450000000007F7F7F0000001000C77F7FB20098
:1004600000001000077F7F7F000000BC00C17F7F7D
:100470007F0000000000007F7F7F000000BF04C1FC
:100480007F7FB20000000000007F7F7F000000B08F
:1004900000C17F7F7F0000000C00007F7F7F000095
:1004A000001000C77F7F7F0000001000077F7F7F64
:1004B000000000B000C17F7F7F0000000000007FCF
:1004C0007F7F000000B000C17F7F7F000000000040
:1004D000007F7F7F000000B000C17F7F7F000000B1
:1004E0000000007F7F7F0000001000C77F7F7F003B
:1004F00000001000077F7F7F000000B000C17F7FF9
:10050000C30000000000007F7FC50000000C000059
:100510007F7F7F0000000000007F7F7F00000000E1
:1005200000007F7FC50000000000007F7F7F00008B
:10053000000000007F7FC30000000000007F7F7F7D
:100540000000000000007F7FC10000000000007F6D
:100550007F7F0000000000007F7FC30000000000DC
:10056000007F7F7F0000000000007F7FC50000004B
:100570000000007F7F7F0000000000007F7FBE0042
:1005800000000000007F7F7F0000000C00007F7FE4
:100590007F0000000000007F7F7F000000BF04C1DB
:1005A0007F7FB20000000000007F7F7F000000B06E
:1005B00000C17FA67FC000000C00007F7F7FE000AD
:1005C000C21000C77FB2B20000001000077F7F7F1B
:1005D000000000B000C17FA67FC000000C00007FBB
:1005E0007F7F000000B000C17FA4B0C00000000009
:1005F000007F7F7F000000B000C17FA6B2C0000076
:100600000000007F7F7F0000001000C77FA97FC02F
:1006100000001C00077F7F7F000000B000C17FAB9F
:10062000B7C000000C00007F7F7F000000000000CA
:100630007F7F7FE000D30000007FA97F000000B033
:1006400000C17FABB7C000000000007F7F7F0000CB
:10065000001000C77FA9B5C000001000077F7F7F92
:10066000000000B000C17FA6B2C000000000007F03
:100670007F7F000000B000C17FA9B5C000000C0062
:10068000007F7F7F000000B000C17FADB5C00000DB
:100690000000007F7F7F0000001000C77F7FB20056
:1006A00000001000077F7F7F000000BC00C17FA614
:1006B0007FC000000000007F7F7F000000BF04C1FA
:1006C0007F7FB20000000000007F7F7F000000B04D
:1006D00000C17FA67FC000000C00007F7F7FE0008C
:1006E000C21000C77FB2B20000001000077F7F7FFA
:1006F000000000B000C17FA67FC000000C00007F9A
:100700007F7F000000B000C17FA4B0C000000000E7
:10071000007F7F7F000000B000C17FA6B2C0000054
:100720000000007F7F7F0000001000C77FA97FC00E
:1007300000001C00077F7F7F000000B000C17FAB7E
:10074000B7C000000C00007F7F7F000000000000A9
:100750007F7F7FE000D30000007FA97F000000B012
:1007600000C17FABB7C000000000007F7F7F0000AA
:10077000001000C77FB0B0C000001000077F7F7F6F
:10078000C00018B000C17FB5BCC000000000007FF1
:100790007F7F000000B000C17FABB1C0000000004F
:1007A000007F7F7F000000B000C17FA5BDC00000BA
:1007B0000000007F7F7F0000001000C77FADC100F8
:1007C00000001000077F7F7F000000B000C17F7F26
:1007D000BEC000000000007F7F7F000000BF04C19A
:1007E0007FA9B20000000000007F7F7F000000B002
:1007F00000C17FA67FC000000C00007F7F7FE0006B
:10080000C21000C77FB2B20000001000077F7F7FD8
:10081000000000B000C17FA67FC000000C00007F78
:100820007F7F000000B000C17FA4B0C000000000C6
:10083000007F7F7F000000B000C17FA6B2C0000033
:100840000000007F7F7F0000001000C77FA97FC0ED
:1008500000001C00077F7F7F000000B000C17FAB5D
:10086000B7C000000C00007F7F7F00000000000088
:100870007F7F7FE000D30000007FA97F000000B0F1
:1008800000C17FABB7C000000000007F7F7F000089
:10089000001000C77FA9B5C000001000077F7F7F50
:1008A000000000B000C17FA6B2C000000000007FC1
:1008B0007F7F000000B000C17FA9B5C000000C0020
:1008C000007F7F7F000000B000C17FADB5C0000099
:1008D0000000007F7F7FE000C21000C77FB2B2003F
:1008E00000001000077F7F7F000000BC00C17FA6D2
:1008F0007F0000000000007F7F7F000000B000C18B
:100900007FADB20000000000007F7F7F000000B0DC
:1009100000C17FA97FC000000C00007F7F7F000026
:10092000001000C77FA9B2C000001000077F7F7FC2
:10093000000000B000C17FA67FC000000C00007F57
:100940007F7F000000B000C17FA9B0C000000000A0
:10095000007F7F7F000000B000C17FB9B2C00000FF
:100960000000007F7F7F0000001000C77FB07FC0C5
:1009700000001C00077F7F7F000000B000C17FAF38
:10098000B7C000000C00007F7F7F00000000000067
:100990007F7F7F0000000000007F7F7F000000B0AD
:1009A00000C17F7FB70000000000007F7F7F000054
:1009B000001000C77F7FB00000001000077F7F7F1E
:1009C000000000B000C17F7FBC0000000000007F7D
:1009D0007F7F0EC100B000C1B27FB10EC100000028
:1009E00000B57F7F0EC100B000C1B97FBD0EC10050
:1009F0000000007F7F7F0EC1001000C7B57FC100DF
:100A000000001000077F7F7F0EC100B000C1B57FDE
:100A1000BE0000000000007F7F7F000000BF04C117
:100A2000AB7FB2000000000000AD7F7FCC0010B0B3
:100A300000C17FB07FC000000C00007F7F7FC0003E
:100A4000101000C7ADB2B2CC00001000077F7F7F4E
:100A5000C00010B000C1ABAB7FC000000C00007F35
:100A60007F7FC00010B000C17FB0B0CC000000009C
:100A7000007F7F7FC00010B000C1A9B2B2C00000EB
:100A80000000007F7F7FCC08101000C77FB07FC0C0
:100A900000001C00077F7F7FCEC210B000C1A4AB56
:100AA000B7CEC2000C0000A67F7FC000100000007F
:100AB000A6B57FCC10000000007F7F7FC00010B083
:100AC00000C1A4B2B7CC08000000007F7F7FC00047
:100AD000101000C7A6B5B5CC08001000077F7F7FB7
:100AE000C00010B000C1A9B2B2C000000000007F79
:100AF0007F7F0C0800B000C17F7FB50000000C00B4
:100B0000007F7F7FC00010B000C1B0B0B5CC100036
:100B10000000007F7F7F0C08001000C77F7FB200BD
:100B200000001000077F7F7F0EC200BC00C1A97FBC
:100B30007F0EC200000000AB7F7F000000BF04C139
:100B4000AB7FB2000000000000AD7F7FC00010B09E
:100B500000C1ABB07FCC00000C00007F7F7FC000E5
:100B6000101000C7A9B2B2CC00001000077F7F7F31
:100B7000C00010B000C1ABAB7FC000000C00007F14
:100B80007F7FCC0810B000C17FB0B0C00000000073
:100B9000007F7F7FC00010B000C1B0B2B2C00000C3
:100BA0000000007F7F7FCC08101000C77FB07FC09F
:100BB00000001C00077F7F7FC00010B000C1ADABFC
:100BC000B7C000000C00007F7F7FC0001000000055
:100BD0007FB57FCC08000000007F7F7FCC0010B085
:100BE00000C17FB2B7C000000000007F7F7F00001F
:100BF000001000C77FB5B0C000001000077F7F7FE6
:100C0000000000B000C17FB2BCC000080000007F3F
:100C10007F7F000000B000C17FB0B1C000080000BD
:100C2000007F7F7F000000B000C17FABBDC0000827
:100C30000000007F7F7F0000001000C77FADC10073
:100C400000001000077F7F7FC00000B000C17F7FE1
:100C5000BE0000000000007F7F7F000000BF04C1D5
:100C6000AB7FB2000000000000AD7F7FCC0010B071
:100C700000C17FB07FC000000C00007F7F7FC000FC
:100C8000101000C7B0B2B2CC00001000077F7F7F09
:100C9000C00010B000C1ADAB7FC000000C00007FF1
:100CA0007F7FC00010B000C17FB0B0CC000000005A
:100CB000007F7F7FC00010B000C1ABB2B2C00000A7
:100CC0000000007F7F7FCC08101000C77FB07FC07E
:100CD00000001C00077F7F7FCEC210B000C1A4AB14
:100CE000B7CEC2000C0000A67F7FC000100000003D
:100CF000A9B57FCC10000000007F7F7FC00010B03E
:100D000000C1ABB2B7CC08000000007F7F7FC000FD
:100D1000101000C7ADB5B5CC08001000077F7F7F6D
:100D2000C00010B000C1B0B2B2C000000000007F2F
:100D30007F7F0C0800B000C17F7FB50000000C0071
:100D4000007F7F7FC00010B000C1ADB0B5CC1000F7
:100D50000000007F7F7F0C08001000C77F7FB2007B
:100D600000001000077F7F7F0EC200BC00C1A97F7A
:100D70007F0EC200000000AB7F7F000000B000C10A
:100D8000AB7FB2000000000000AD7F7FC00010B05C
:100D900000C1B0B07FCC00000C00007F7F7FC0009E
:100DA000101000C7ADB2B2CC00001000077F7F7FEB
:100DB000C00010B000C1B0AB7FC000000C00007FCD
:100DC0007F7FCC0810B000C17FB0B0C00000000031
:100DD000007F7F7FC00010B000C1B2B2B2C000007F
:100DE0000000007F7F7FCC08101000C77FB07FC05D
:100DF00000001C00077F7F7FC00010B000C1B0ABB7
:100E0000B7C000000C00007F7F7FC0001000000012
:100E10007FB57FCC08000000007F7F7FCC0010B042
:100E200000C17FB2B7C000000000007F7F7F0000DC
:100E3000001000C77FB2B0C000001000077F7F7FA6
:100E4000000000B000C17FB5BCC000080000007FFA
:100E50007F7F000000B000C17FB9B1C00008000072
:100E6000007F7F7F000000B000C17FB5BDC00008DB
:100E70000000007F7F7F0000001000C77FB0C1002E
:100E800000001000077F7F7FC00000B000C17F7F9F
:100E9000BE0000000000007F7F7FAC1004B000C1E6
:100EA000B0ADB50000000000007F7F7FA00004B05F
:100EB00000C17FA67F000000BC00C17F7F7FA00033
:100EC000041000C77FADC10000001C00077F7F7FBA
:100ED000AC1004B000C1B2AFB5000000B000C17FDB
:100EE0007F7FA00004BC00C17FAD7F000000000038
:100EF000007F7F7FA00004B000C17FAFB50000007D
:100F0000B000C17F7F7FAC10041000C7B4B0BC003C
:100F100000001000077F7F7FA00004B000C17FABFE
:100F2000C1000000B000C17F7F7FAC100400000052
:100F3000B2AFB70000000000007F7F7FA00004BCBC
:100F400000C17FB07F000000B000C17F7F7FA000A4
:100F5000041000C77FAFB70000001000077F7F7F3D
:100F6000AC1004B000C1B4B07F000000BC00C17F71
:100F70007F7FA00004B000C17FABB70000000C0071
:100F8000007F7F7FA00004B000C17FA8B5000000F3
:100F9000BC00C17F7F7FAC10041000C7B5B2B200A7
:100FA00000001000077F7F7FA00004B000C17FAB6E
:100FB0007F000000BC00C17F7F7FAC1004B000C187
:100FC000B7B4B00000000000007F7F7FA00004B035
:100FD00000C17FB57F000000BC00C17F7F7FA00003
:100FE000041000C77FB4B00000001C00077F7F7FA3
:100FF000AC1004B000C1B5B2BC000000B000C17FAD
:101000007F7FA00004B000C17FAB7F0000000C0018
:10101000007F7F7FA00004B000C17FA8B000000067
:10102000BC00C17F7F7FAC10041000C7B4B0B70014
:1010300000001C00077F7F7FA00004B000C17FAFCD
:10104000B7000000BC00C17F7F7FAC10040000002F
:10105000B0ADB50000000000007F7F7F000000B051
:1010600000C17F7F7F000000BC00C17F7F7F000048
:10107000001000C77F7FB50000001C00077F7F7F46
:10108000000000B000C17F7FC1000000BC00C17F34
:101090007F7F000000B000C17F7F7F000000000064
:1010A000007F7F7F000000B000C17F7FB50000009F
:1010B000BC00C17F7F7F0000001000C77F7FB400AD
:1010C00000001C00077F7F7F000000B000C17F7F11
:1010D000B5000000BC00C17F7F7FAC1004B000C130
:1010E000B0ADB50000000000007F7F7FA00004B01D
:1010F00000C17FA67F000000BC00C17F7F7FA000F1
:10110000041000C77FADC10000001C00077F7F7F77
:10111000AC1004B000C1B2AFB5000000B000C17F98
:101120007F7FA00004BC00C17FAD7F0000000000F5
:10113000007F7F7FA00004B000C17FAFB50000003A
:10114000B000C17F7F7FAC10041000C7B4B0BC00FA
:1011500000001000077F7F7FA00004B000C17FABBC
:10116000C1000000B000C17F7F7FAC100400000010
:10117000B2AFB70000000000007F7F7FA00004BC7A
:1011800000C17FB07F000000B000C17F7F7FA00062
:10119000041000C77FAFB70000001000077F7F7FFB
:1011A000AC1004B000C1B4B07F000000BC00C17F2F
:1011B0007F7FA00004B000C17FABB70000000C002F
:1011C000007F7F7FA00004B000C17FA8B5000000B1
:1011D000BC00C17F7F7FAC10041000C7B5B2B20065
:1011E00000001000077F7F7FA00004B000C17FAB2C
:1011F0007F000000BC00C17F7F7FAC1004B000C145
:10120000B7B4B00000000000007F7F7FA00004B0F2
:1012100000C17FB27F000000BC00C17F7F7FA000C3
:10122000041000C77FABB00000001C00077F7F7F69
:10123000A00004B000C17FB4BC000000B000C17FBA
:101240007F7FA00004B000C17FA87F0000000C00D9
:10125000007F7F7FA00004B000C17FB2B00000001B
:10126000BC00C17F7F7FA000041000C77FABB70028
:1012700000001C00077F7F7FA00004B000C17FB486
:10128000B7000000BC00C17F7F7FA0000400000009
:101290007FA8B00000000000007F7F7FA00004B0A6
:1012A00000C17FB27F000000BC00C17F7F7FA00033
:1012B000041000C77FABB00000001C00077F7F7FD9
:1012C000A00004B000C17FB4BC000000B000C17F2A
:1012D0007F7FA00004B000C17FA87F0000000C0049
:1012E000007F7F7FA00004B000C17FB2B00000008B
:1012F000BC00C17F7F7FA000041000C77FAFB70094
:1013000000001C00077F7F7FA00004B000C17FB0F9
:10131000B7000000BC00C17F7F7F000000BF04C198
:10132000AB7FB2000000000000AD7F7FCC0010B0AA
:1013300000C17FB07FC000000C00007F7F7FC00035
:10134000101000C7B0B2B2CC00001000077F7F7F42
:10135000C00010B000C1ADAB7FC000000C00007F2A
:101360007F7FC00010B000C17FB0B0CC0000000093
:10137000007F7F7FC00010B000C1ABB2B2C00000E0
:101380000000007F7F7FCC08101000C77FB07FC0B7
:1013900000001C00077F7F7FCEC210B000C1A4AB4D
:1013A000B7CEC2000C0000A67F7FC0001000000076
:1013B000A9B57FCC10000000007F7F7FC00010B077
:1013C00000C1ABB2B7CC08000000007F7F7FC00037
:1013D000101000C7ADB5B5CC08001000077F7F7FA7
:1013E000C00010B000C1B0B2B2C000000000007F69
:1013F0007F7F0C0800B000C17F7FB50000000C00AB
:10140000007F7F7FC00010B000C1ADB0B5CC100030
:101410000000007F7F7F0C08001000C77F7FB200B4
:1014200000001000077F7F7F0EC200BC00C1A97FB3
:101430007F0EC200000000AB7F7F000000B000C143
:10144000AB7FB2000000000000AD7F7FC00010B095
:1014500000C1B0B07FCC00000C00007F7F7FC000D7
:10146000101000C7ADB2B2CC00001000077F7F7F24
:10147000C00010B000C1B0AB7FC000000C00007F06
:101480007F7FCC0810B000C17FB0B0C0000000006A
:10149000007F7F7FC00010B000C1B2B2B2C00000B8
:1014A0000000007F7F7FCC08101000C77FB07FC096
:1014B00000001C00077F7F7FC00010B000C1B0ABF0
:1014C000B7C000000C00007F7F7FC000100000004C
:1014D0007FB57FCC08000000007F7F7FCC0010B07C
:1014E00000C17FB2B7C00000B000C17F7F7F0000A5
:1014F00000B000C17FB2B0C00000B000C17F7F7FEC
:10150000000000B000C17FB5BCC00008B000C27FC1
:101510007F7F000000B000C27FB9B1C00008B000FA
:10152000C27F7F7F000000B000C27FB5BDC0000851
:10153000B000C27F7F7F000000B000C37FB0C10059
:101540000000B000C37F7F7FC00000B000C37F7F7A
:10155000BE000000B000C37F7F7FAC1004B000C1AC
:10156000B0ADB50000000000007F7F7FA00004B098
:1015700000C17FA67F000000BC00C17F7F7FA0006C
:10158000041000C77FADC10000001C00077F7F7FF3
:10159000AC1004B000C1B2AFB5000000B000C17F14
:1015A0007F7FA00004BC00C17FAD7F000000000071
:1015B000007F7F7FA00004B000C17FAFB5000000B6
:1015C000B000C17F7F7FAC10041000C7B4B0BC0076
:1015D00000001000077F7F7FA00004B000C17FAB38
:1015E000C1000000B000C17F7F7FAC10040000008C
:1015F000B2AFB70000000000007F7F7FA00004BCF6
:1016000000C17FB07F000000B000C17F7F7FA000DD
:10161000041000C77FAFB70000001000077F7F7F76
:10162000AC1004B000C1B4B07F000000BC00C17FAA
:101630007F7FA00004B000C17FABB70000000C00AA
:10164000007F7F7FA00004B000C17FA8B50000002C
:10165000BC00C17F7F7FAC10041000C7B5B2B200E0
:1016600000001000077F7F7FA00004B000C17FABA7
:101670007F000000BC00C17F7F7FAC1004B000C1C0
:10168000B7B4B00000000000007F7F7FA00004B06E
:1016900000C17FB27F000000BC00C17F7F7FA0003F
:1016A000041000C77FABB00000001C00077F7F7FE5
:1016B000A00004B000C17FB4BC000000B000C17F36
:1016C0007F7FA00004B000C17FA87F0000000C0055
:1016D000007F7F7FA00004B000C17FB2B000000097
:1016E000BC00C17F7F7FA000041000C77FABB700A4
:1016F00000001C00077F7F7FA00004B000C17FB402
:10170000B7000000BC00C17F7F7FA000041000C7AD
:101710007FA8B0EEC3C3100007B77F7FEEC3C3003E
:101720000000B7B27FEEC3C30C0000B77F7FEEC3EB
:10173000C3000000B7AB7FEEC3C3000000B77F7FDC
:10174000EEC3C3000000B7B47FEEC2C3000000B711
:101750007F7FEEC2C2000000B7A87FEEC2C20000C9
:1017600000B67F7FEEC2C2000000B5B27FEEC2C2FB
:10177000000000B47F7FEEC1C2000000B3AF7FEE77
:10178000C1C1000000B27F7FEEC1C1000000B1B056
:101790007FEEC1C1000000B07F7F000000BF04C128
:1017A0007F7FB20000000000007F7F7F000000B05C
:1017B00000C1A9A67FCC00000C00007F7F7FEEC295
:1017C000C21000C7B9B2B20EC200100007B57F7FC9
:1017D0000EC200B000C1B5A67FC000000C00007FA3
:1017E0007F7F000000B000C1A8A4B0CC00000000C2
:1017F000007F7F7F000000B000C17FA6B2C0000064
:101800000000007F7F7F0EC1001000C7ABA97FC022
:1018100000001C00077F7F7F000000B000C1A6AB66
:10182000B7CC00000C00007F7F7F000000000000AC
:101830007F7F7FE000D30000007FA97F000000B021
:1018400000C17FABB7C000000000007F7F7F0000B9
:10185000001000C77FA9B5C000001000077F7F7F80
:10186000000000B000C17FA6B2C000000000007FF1
:101870007F7F000000B000C17FA9B5C000000C0050
:10188000007F7F7F000000B000C17FADB5C00000C9
:101890000000007F7F7F0000001000C77F7FB20044
:1018A00000001000077F7F7F000000BC00C17FA602
:1018B0007FC000000000007F7F7F000000BF04C1E8
:1018C0007F7FB20000000000007F7F7F000000B03B
:1018D00000C1A9A67FCC00000C00007F7F7FEEC274
:1018E000C21000C7B9B2B20EC200100007B57F7FA8
:1018F0000EC200B000C1B5A67FC000000C00007F82
:101900007F7F000000B000C1A8A4B0CC00000000A0
:10191000007F7F7F000000B000C17FA6B2C0000042
:101920000000007F7F7F0EC1001000C7ABA97FC001
:1019300000001C00077F7F7F000000B000C1A6AB45
:10194000B7CC00000C00007F7F7F0000000000008B
:101950007F7F7FE000D30000007FA97F000000B000
:1019600000C17FABB7C000000000007F7F7F000098
:10197000001000C77FB0B0C000001000077F7F7F5D
:10198000C00018B000C17FB5BCC000000000007FDF
:101990007F7F000000B000C17FABB1C0000000003D
:1019A000007F7F7F000000B000C17FA5BDC00000A8
:1019B0000000007F7F7F0000001000C77FADC100E6
:1019C00000001000077F7F7F000000B000C17F7F14
:1019D000BEC000000000007F7F7F000000BF04C188
:1019E000ADA9B20000000000007F7F7F000000B0C2
:1019F00000C1A9A67FCC00000C00007F7F7FEEC253
:101A0000C21000C7B9B2B20EC200100007B57F7F86
:101A10000EC200B000C1B5A67FC000000C00007F60
:101A20007F7F000000B000C1A8A4B0CC000000007F
:101A3000007F7F7F000000B000C17FA6B2C0000021
:101A40000000007F7F7F0EC1001000C7ABA97FC0E0
:101A500000001C00077F7F7F000000B000C1A6AB24
:101A6000B7CC00000C00007F7F7F0000000000006A
:101A70007F7F7FE000D30000007FA97F000000B0DF
:101A800000C17FABB7C000000000007F7F7F000077
:101A9000001000C77FA9B5C000001000077F7F7F3E
:101AA000000000B000C17FA6B2C000000000007FAF
:101AB0007F7F000000B000C17FA9B5C000000C000E
:101AC000007F7F7F000000B000C17FADB5C0000087
:101AD0000000007F7F7FE000C21000C77FB2B2002D
:101AE00000001000077F7F7F000000BC00C17FA6C0
:101AF0007F0000000000007F7F7F000000B000C179
:101B0000B2ADB20000000000007F7F7F000000B097
:101B100000C1B0A97FCC00000C00007F7F7F0EC207
:101B2000001000C7B9A9B2CEC200100007B57F7F70
:101B30000EC200B000C1B5A67FC000000C00007F3F
:101B40007F7F000000B000C1ADA9B0CC0000000054
:101B5000007F7F7F000000B000C17FB9B2C00000ED
:101B60000000007F7F7F0EC100B000C1ABB07FC01E
:101B700000000C00007F7F7F0000001000C77F7F07
:101B8000C30000001000077F7FC50000000C0000AC
:101B90007F7F7F0000000000007F7F7F000000004B
:101BA00000007F7FC50000000000007F7F7F0000F5
:101BB000000000007F7FC30000000000007F7F7FE7
:101BC0000000000000007F7FC10000000000007FD7
:101BD0007F7F0EC100000000B27FC30EC100000075
:101BE00000B57F7F0EC100000000B97FC500000076
:101BF0000000007F7F7F0EC100000000B57FBE00A7
:101C000000000000007F7F7F0EC1000C0000B57F48
:101C10007F0000000000007F7F7FC400454101007D
:101C2000000000000000B0ABA40000000000007F36
:101C30007F7F0000000000007F7F7F000000000029
:101C4000007F7F7F000000000000B27F7F00000067
:101C50000000007F7F7F0000000000007F7F7F008A
:101C600000000000007F7F7F000000000000B47FC4
:101C70007F0000000000007F7F7F00000000000068
:101C80007F7F7F0000000000007F7F7F000000005A
:101C90000000B57F7F0000000000007F7F7F000014
:101CA000000000007F7F7F0000000000007F7F7F3A
:101CB000000000000000B77F7F0000000000007FF0
:101CC0007F7F0000000000007F7F7F000000000099
:101CD000007F7F7F000000000000B97F7F000000D0
:101CE0000000007F7F7F0000000000007F7F7F00FA
:101CF00000000000007F7F7F000000000000BB7F2D
:101D00007F0000000000007F7F7F000000000000D7
:101D10007F7F7F0000000000007F7F7F00000000C9
:101D20000000BC7F7F0000000000007F7F7F00007C
:101D3000000000007F7F7F0000000000007F7F7FA9
:101D4000000000000000BB7F7F0000000000007F5B
:101D50007F7F0000000000007F7F7F000000000008
:101D6000007F7F7F000000000000B97F7F0000003F
:101D70000000007F7F7F0000000000007F7F7F0069
:101D800000000000007F7F7F000000000000B77FA0
:101D90007F0000000000007F7F7F00000000000047
:101DA0007F7F7F0000000000007F7F7F0000000039
:101DB0000000B57F7F0000000000007F7F7F0000F3
:101DC000000000007F7F7F0000000000007F7F7F19
:101DD000000000000000B47F7F0000000000007FD2
:101DE0007F7F0000000000007F7F7F000000000078
:101DF000007F7F7F000000000000B27F7F000000B6
:101E00000000007F7F7F0000000000007F7F7F00D8
:101E100000000000007F7F7F000000000000B07F16
:101E20007F0000000000007F7F7F000000000000B6
:101E30007F7F7F0000000000007F7F7F00000000A8
:101E400000007F7F7F0000000000007F7F7F000098
:101E5000000000007F7F7F0000000000007F7F7F88
:101E60004F524947494E414C5F53515541574B00E2
:101E7000040A011A1C1A1C53494D504C455F534328
:101E8000414C4500000000061D1C1A1C1A1CD5F010
:101E90008D14A1C881CFD9F1AF20004D454E555FBB
:101EA0004D41494E0041524455424F59204F544FE5
:101EB00047452056004D454E555F53454C454354CC
:101EC000004C454654204F52205249474854205414
:101ED0004F0A4348414E474520534F4E470041204B
:101EE000544F205354415254004220544F205245E5
:101EF0005455524E001010FC020101FDFD8D8D8DD8
:101F00008DFDF9010102FC3F408080BFBFB1B1B13E
:101F1000B1BF9E8080403F1010FC020101F9FD8D91
:101F20008D8D8DFDF9010102FC3F408080BFBF8196
:101F3000818181BFBF8080403F1010FC02C1C1C1C0
:101F4000C1C1C1FDF9F1E1C18102FC3F408383833E
:101F5000838383BF9F8F878381403F1010FC028162
:101F6000C1E1F1F9FDFDF9F1E1C18102FC3F4080E1
:101F7000808080BFBFBFBF80808080403F1010FC4A
:101F80000201010101FDFDFDFD0101010102FC3F16
:101F9000408183878F9FBFBF9F8F878381403FFC96
:101FA000FEFFFFFFFFFFFFFFFFFFFFFFFFFEFC3F06
:101FB0007FFFFFFFFFFFFFFFFFFFFFFFFF7F3F10E0
:101FC00010FC0281C1E1F1F9FDC1C1C1C1C1C10271
:101FD000FC3F408183878F9FBF83838383838340BC
:101FE0003F535441525421004745542052454144E7
:101FF00059210052554E5F504C4159494E470047B8
:10200000524541540A474F4F440A4D4953530A4DD4
:10201000415820434F4D424F004D454E555F52456C
:1020200053554C54004120544F20434F4E54494E79
:10203000554500FCFEFFFFFFFFFFFFFFFFFFFFFF17
:10204000FFFEFC3F7FFFFFFFFFFFFFFFFFFFFFFFE4
:10205000FF7F3F000C1825303C47515A626A70766A
:102060007A7D7F7F7F7D7A76706A625A51473C30F5
:1020700025180C600DA00CE80B400B980A000A70A4
:1020800009E8086808F00780071607B0065006F44C
:1020900005A0054C050005B80474043404F803C019
:1020A000038B0358032803FA02D002A60280025CC5
:1020B000023A021A02FC01E001C501AC0194017D63
:1020C000016801530140012E011D010D01FE00F0C8
:1020D00000E200D600CA00BE00B400AA00A000972B
:1020E000008F0087007F00780071006B0065005F43
:1020F000005A00550050004B00470043003F003C91
:10210000003800350032002F002D002A002800255D
:1021100000230021001F001E001C0004083E0909C6
:102120003E3F25251A1E2121123F21211E3F252534
:10213000213F0505011E21293A3F04043F213F218B
:10214000001021211F3F040A313F2020203F0202BE
:102150003F3F02043F1E21211E3F0909061E211197
:102160002E3F09093622252519013F01011F202094
:102170001F0F10201F3F10103F3B04043B03043887
:1021800007312D23211E29251E223F200032292917
:10219000261221251A0C0A3F08172525191E252568
:1021A00018013905031A25251A0629291E002F00B2
:1021B000000020000020202020080B000202020165
:1021C00000090400000102020000052400100105BE
:1021D00024010101042402060524060001070581EB
:1021E0000310004009040100020A00000007050274
:1021F00002400000070583024000000403090412A6
:10220000010002EF020140412336000001010203F8
:102210000141726475696E6F204C4C4300417264D9
:1022200075626F79001010FCFE3F3F3F3F3F3F0358
:10223000070F1F3F7FFEFC3F7FFCFCFCFCFCFCC04B
:10224000E0F0F8FCFE7F3F1010FCFE7F3F1F0F0701
:10225000033F3F3F3F3F3FFEFC3F7FFEFCF8F0E087
:10226000C0FCFCFCFCFCFC7F3F1010FCFEFFFFFFF1
:10227000FF03030303FFFFFFFFFEFC3F7FFEFCF8AD
:10228000F0E0C0C0E0F0F8FCFE7F3F1010FCFE7FE5
:102290003F1F0F070303070F1F3F7FFEFC3F7FFF1A
:1022A000FFFFFFC0C0C0C0FFFFFFFF7F3F1010FC5B
:1022B000FEFFFF0303737373730307FFFFFEFC3F0F
:1022C0007FFFFFC0C0CECECECEC0E1FFFF7F3F106C
:1022D00010FCFEFFFF0703F3F3F3F30307FFFFFE1A
:1022E000FC3F7FFFFFC0C0FCFCFCFCC0C0FFFF7FC9
:1022F0003F00062A11241FBECFEFDAE0DEBFCDBFBC
:1023000011E0A0E0B1E0EAE5F9E502C005900D9228
:10231000A03BB107D9F728E0A0EBB1E001C01D92C6
:10232000AA3FB207E1F711E1CAE7D1E104C0219762
:10233000FE010E947F2BC937D107C9F70E94982858
:102340000C94AB2C0C94000082E090E008958FB7C1
:10235000F89440916202509163026091640270911E
:1023600065028FBF8091E708942F981B892F909169
:10237000E808992329F08093E9081092E80824C01E
:102380009091E608891740F48F5F8917E8F481E09F
:1023900083BF889513BE18C081E08093E8084093FE
:1023A000E7082091E2083091E3082F5F3F4F309318
:1023B000E3082093E2088091E908981710F45D98EB
:1023C00001C05D9A81E0089580E0089581E00C9459
:1023D000ED236F927F928F929F92AF92BF92CF9296
:1023E000DF92EF92FF920F931F93CF93DF93809131
:1023F000E4088093E5080E9433238093E408209149
:1024000050023091510230938902209388028091CA
:10241000860290918702A901481B590BCA0150936B
:102420008B0240938A0240918C0250918D02840F5E
:10243000951F90938D0280938C0230938702209396
:10244000860284E992E0892B49F082E992E00097C4
:1024500029F0BC0184E992E00E9431240E94D62434
:10246000CEE7D2E014E080918A0290918B0200972F
:1024700019F120917D02289FA001299F500D112460
:1024800088819981841B950B998388838830910575
:102490009CF440919802342F36953695330F309343
:1024A0007C02249F90011124220F331F220F331F1F
:1024B000820F931F998388836991799160347105A4
:1024C00028F440E68EE190E00E948525115059F6EF
:1024D000EE24E3940FE91FE120E04FEB5FE160E0C1
:1024E00070E08EE190E00E94E82520E04DE75FE19A
:1024F00060E070E08EE290E00E94E82520E04BE58D
:102500005FE160E070E08EE390E00E94E82520E06B
:1025100049E35FE160E070E08EE490E00E94E8252E
:1025200020E047E15FE160E070E08EE590E00E942E
:10253000E82520E045EF5EE160E070E08EE690E0A7
:102540000E94E82580917C02882319F18FE190E0B8
:102550000E94BA258FE290E00E94BA258FE390E0B6
:102560000E94BA258FE490E00E94BA258FE590E0A2
:102570000E94BA258FE690E00E94BA2580918A02D7
:1025800090918B02892B29F080917C02815080935D
:102590007C0200919B0210919C02C0E00115110584
:1025A000A9F0CF5FD8018D919C9160918A027091C2
:1025B0008B02DC01ED91FC910280F381E02D4091D2
:1025C0007D020995F80102811381E8CF8091B30162
:1025D000C813C093B301C0919B02D0919C0284E0C8
:1025E000C82ED12C92E0692E712CAA24A394B12C70
:1025F00033E0832E912C209709F499C0088119812A
:10260000D80119968D919C911A978B3FBFEF9B072C
:102610009CF4D0927B02C0927A02F8018385948563
:10262000892B31F5809175028F5F8093750210922E
:102630007602D486C3861CC08F3FFFEF9F072CF421
:1026400090927B0280927A0213C0833091052CF421
:10265000B0927B02A0927A020BC007972CF4709282
:102660007B0260927A0204C0D0927B02C0927A020E
:10267000E0907A02F0907B0224E0E216F10439F156
:10268000D8011D968C910E942624882301F1F8011F
:1026900083859485892BD9F421E0E216F10409F0B1
:1026A000DAC0809173028F5F80937302809177020A
:1026B000909176029F5F90937602891718F48F5F4E
:1026C00080937702D8011C96FC92EE921B97F8013A
:1026D00083859485892B61F40190F081E02D019030
:1026E000F081E02DC80109950A811B81E80183CFA3
:1026F0000A811B81CE010E94DF1DE0919D02F091B5
:102700009E02309721F0D583C483FB83EA83D09364
:102710009E02C0939D0280919B0290919C02C817DB
:10272000D90721F700939B0210939C02DFCF2091E1
:102730009002309191022115310599F18091980212
:1027400090E08217930758F485E38093DA0880932A
:10275000D90880E28093DB0888EE9FE10AC08FE30E
:102760008093DA088093D90880E28093DB0881EEB9
:102770009FE10E94FC238091900290919102209110
:102780008A0230918B028217930738F0821B930BD9
:10279000909391028093900204C010929102109243
:1027A00090028091E908F4E68F9FC00111246091A6
:1027B000E60870E00E946B2B862F9091B20196176D
:1027C00010F46093B2019091B101891710F46093F5
:1027D000B1011092DA081092D90888E28093DB08E0
:1027E0008091B2010E94E22483E191E00E941724CB
:1027F0008091B3010E94E22460E080E00E942025E5
:102800001092DA081092D90888E38093DB0883EFEE
:102810009FE10E94FC2381E00E94ED2320918C0225
:1028200030918D0280918E0290918F022817390786
:1028300078F010926F001092FE0110920302109235
:10284000080210920D021092520284E090E009C03A
:1028500081E090E006C0809174028F5F80937402E3
:1028600025CFDF91CF911F910F91FF90EF90DF90D7
:10287000CF90BF90AF909F908F907F906F90089572
:102880008091E4088093E5080E9433238093E40854
:1028900088E00E942624811103C082E090E0089520
:1028A00083E090E00895CF92DF92FF920F931F9301
:1028B000CF93DF938091E4088093E5080E9433234F
:1028C0008093E40880E20E942624882351F08091BE
:1028D000B001811102C081E001C081508093B0013C
:1028E000AFC180E40E942624882349F08091B00182
:1028F000813019F41092B001A3C18F5FEFCF88E04F
:102900000E942624882309F496C1E091B001F0E0EA
:10291000EE0FFF1FE15EFE4FC081D1811092890250
:1029200010928802109287021092860210928B02F7
:1029300010928A0210928D0210928C028FEF9FEFFC
:1029400090938F0280938E0284E090E090937B02BC
:1029500080937A0210929C0210929B0210929E0227
:1029600010929D021092950210929402109274029D
:1029700010927302109275021092760210927702F2
:1029800010927902109278020E94D62475EFC72E19
:1029900076E0D72E05E418E0F12CD801CD92DC9238
:1029A000C8010E94DF1DC8010696F11004C0F8019D
:1029B000958384830BC0980126503109D801139662
:1029C0003C932E931297B7E1FB12F1CF10939E0226
:1029D00000939D02F394EEE0CE0ED11C8C01F8E141
:1029E000FF12DBCFD0939702C0939602FE01709640
:1029F000E491EE0FEE0FE09398022E2F30E088EB7B
:102A00009BE0B9010E94572B6093990281E080936B
:102A10007D02E0939A02C901880F991F880F991FC0
:102A200090939102809390029093930280939202EC
:102A3000A901495F5F4F50937F0240937E02220FAE
:102A4000331F295F3F4F309381022093800243E080
:102A5000E49F90011124295F3F4F3093830220931C
:102A6000820207969093850280938402E695E09314
:102A70007C02FE01739685919491FC01859194915D
:102A8000909395028093940284E992E0892B49F017
:102A900082E992E0009729F0BC0184E992E00E946B
:102AA00031248091900280934F02E0919602F09140
:102AB000970271968591949110926F009093F2060F
:102AC0008093F10610926F00109251021092500202
:102AD0002FEE36E03093F7012093F601E091EF06F8
:102AE000F091F0069093F4068093F3060480F5814C
:102AF000E02DC9010995833599F58091F6019091F2
:102B0000F701DC01ED91FC910680F781E02D64E096
:102B100070E009958091F6019091F701DC01ED914B
:102B2000FC910480F581E02D09951092B401809309
:102B3000B5018091F6019091F701DC01ED91FC91D6
:102B40000480F581E02D09952091B4013091B50103
:102B5000282B2A5F3F4F3093B5012093B40106C064
:102B600081E090E09093B5018093B4018091F601EB
:102B70009091F7016091B4017091B501DC01ED9184
:102B8000FC910680F781E02D09958091F6019091E6
:102B9000F701DC01ED91FC910480F581E02D0995B0
:102BA00080935202813408F041C02091B4013091E9
:102BB000B5012F5F3F4FF901E80FF11DF093B5010B
:102BC000E093B401C0E080915202C81790F4809164
:102BD000F6019091F701DC01ED91FC910480F58103
:102BE000E02D0995EC2FF0E0EA54FE4F8083CF5F93
:102BF000EACF8CE3E2E1F2E0DF011D928A95E9F78A
:102C00001092FD011092F8011092F9018FEF80935C
:102C1000FA018093FB0110924E0286E08093FC0142
:102C20000E940E1982E080936F0002C0109252023F
:102C300081E090E041C084E00E94262481113AC0E6
:102C40001092DA081092D9081092DB0889EE9EE102
:102C50000E94FC2383E191E00E9417248EED9EE107
:102C60000E94FC2383E191E00E941724E091B001CF
:102C7000F0E0EE0FFF1FE15EFE4F808191810E9428
:102C8000FC2383E191E00E94172481EC9EE10E94E5
:102C9000FC231092DA081092D90888E38093DB08AD
:102CA00085EB9EE10E94FC2381E00E94ED2383E0FE
:102CB00090E002C082E090E0DF91CF911F910F91F0
:102CC000FF90DF90CF900895CF93DF930E94192457
:102CD000C5EDD8E01D821C821E8285EA9EE10E941D
:102CE000FC238AEA91E00E9417241D821C8280E165
:102CF0008E838EED9EE10E94FC231D821C8288E360
:102D00008E838BE99EE10E94FC2380E0DF91CF91CE
:102D10000C94ED2381EC80937C0085B1806F85B9A4
:102D200084B1877E84B984B1876E84B95E9A5F98D6
:102D30008AB1806D8AB9769A6E9881B3806F81BBB3
:102D4000899880B38D7080BB80E58CBD81E08DBD9E
:102D500085E090E00E942E235F9A85E090E00E943B
:102D60002E235E985C98EEE8FEE184918EBD000013
:102D70000DB407FEFDCF31968EE1EB39F807A9F7C8
:102D80005C9A81E880936400809165008160809303
:102D9000650080E00E94ED230E9433238038B1F467
:102DA0002E9880916400806280936400FFCF2D98FC
:102DB0000E9433238478843871F00E943323847115
:102DC000843129F188EC90E00E942E230E94332365
:102DD00082FDEDCF38C02D9A88EC90E00E942E2322
:102DE0002F9882E090E00E94DE2A8F3F29F06FEF5B
:102DF00082E090E00E94E62A84EF91E00E942E2378
:102E00002F9A0E94332384788438D9F3D6CF2D9A11
:102E100088EC90E00E942E232E9882E090E00E94A1
:102E2000DE2A882329F060E082E090E00E94E62A12
:102E300084EF91E00E942E232E9A0E943323847106
:102E40008431D9F3BFCF2D9A82E090E00E94DE2A30
:102E5000882319F03E9A3F9A02C03E983F9882E339
:102E600090E00E942E230E9433238111F8CF80919D
:102E70000501909106018734910569F4279A83E84A
:102E800084BD81E085BD80916E008E7F80936E0051
:102E900080E887BD38C08834910569F4509A83E290
:102EA00084BD81E085BD80E888BD80916E008E7F05
:102EB00080936E0028C08839910569F43E9A81E8B4
:102EC0008093900089E0809391001092990080E8AF
:102ED0008093980018C08F3C9105A9F487B1806C4D
:102EE00087B91092BF001092C2001092C3008FEFFA
:102EF0008093D10082E48093C00081EC8093C10074
:102F000080E88093D00081E090E090930F0280935E
:102F10000E021092800089E08093810081E080930E
:102F2000890084EF8093880080E18093E60808950B
:102F30002F922FB62F93BF93AF930F921F92209192
:102F4000090200900B02020E00920B0220910A026D
:102F500010900C02121E10920C02B12DB7FDB0950C
:102F6000BB0FA0910802B058BA02110CA12D2091FC
:102F7000FF0100900102020E009201022091000266
:102F800010900202121E10920202212D220F212106
:102F9000B091FE0127FDB195AB0F20910402009086
:102FA0000602020E0092060220910502109007020E
:102FB000121E10920702B091030217FCB195AB0FDD
:102FC000B1E000900E0210900F02000C111C17FCD3
:102FD0000B2616FC0B2600920E0210920F02B091E7
:102FE0000D0217FCB195AB0FB0910401AB0FA0938C
:102FF000CF00B0910301A0910201119761F0B0934D
:103000000301A09302011F900F90AF91BF912F91E8
:103010002FBE2F901895B0910101A0910001B0939F
:103020000301A093020178943F934F935F936F93B2
:103030007F938F939F93EF93FF9311240E94621AC3
:10304000FF91EF919F918F917F916F915F914F9140
:103050003F911F900F90AF91BF912F912FBE2F9056
:103060001895089580E090E00895FC012281338155
:10307000620F731F758364830895DC011496ED91CC
:10308000FC9115979F012F5F3F4F15963C932E9310
:10309000149784910895FC0187819085861797077E
:1030A00028F0861B970B90878783089518161906BA
:1030B0006CF421853285820F931F861B970B9287B4
:1030C00081871086178281E0868308958381893FF6
:1030D0008CF023853485232B69F491E09683469FF9
:1030E00080191124838381859285861B970B928793
:1030F00081870895168208950C941D2CCF93DF9339
:10310000EC018A818370823099F08330B1F099812B
:10311000813049F0E92FEF71F0E0ED5AFF4D8491D5
:1031200095FF0FC003C0892F880F880F819509C0B4
:10313000898185FD05C080E804C00E94CE2A01C0B7
:103140008FE79881292F2F7092959F703981930F67
:103150009983382F3203C001112426E09595879575
:103160002A95E1F7DF91CF910895EF920F931F9386
:10317000FC0126812223A1F044815581411551058E
:1031800079F06381062E000C770B8281EE24E394A4
:1031900003E310E220E0082E000C990B0E94E825C2
:1031A0001F910F91EF9008958091E4088093E508B6
:1031B0000E9433238093E40888E00E942624811132
:1031C00003C084E090E0089583E090E00895CF93F9
:1031D000DF930E941924C5EDD8E01D821C821E8257
:1031E00085E290E20E94FC231D821C8280E18E8396
:1031F0008FEF9FE10E94FC2360E182E30E94202583
:103200001D821C8288E38E8389E190E20E94FC2368
:1032100080E0DF91CF910C94ED2308958091F60129
:103220009091F701E091F901F0E0EA54FE4F4081FE
:103230002091F80130E050E4459F200D311D11240C
:1032400049E0429FB001439F700D11242091B401C9
:103250003091B501620F731FDC01ED91FC91068086
:10326000F781E02D09958091F6019091F701DC013D
:10327000ED91FC910480F581E02D0995982F9295B0
:10328000907F90935302807F809356028091F60145
:103290009091F701DC01ED91FC910480F581E02D26
:1032A0000995809354028091F6019091F701DC0119
:1032B000ED91FC910480F581E02D099580935702F2
:1032C0008091F6019091F701DC01ED91FC91048071
:1032D000F581E02D0995982F9295907F9093590252
:1032E00090E024E0959587952A95E1F780935C021C
:1032F0008091F6019091F701DC01ED91FC91048041
:10330000F581E02D099580935A028091F601909104
:10331000F701DC01ED91FC910480F581E02D099528
:1033200080935D028091F6019091F701DC01ED91AF
:10333000FC910480F581E02D0995809355028091E0
:10334000F6019091F701DC01ED91FC910480F5818B
:10335000E02D0995809358028091F6019091F70134
:10336000DC01ED91FC910480F581E02D09958093BD
:103370005B0280915302803E59F480915402982F51
:1033800092959F70906E909353028F708093540229
:1033900080915602803E59F480915702982F929561
:1033A0009F70906E909356028F7080935702809119
:1033B0005902803E59F480915A02982F92959F703D
:1033C000906E909359028F7080935A0280915D02A3
:1033D00087FF02C020E001C02FE786FF02C090E80F
:1033E00001C090E0922B90935E02982F9F73909370
:1033F0005D0220915C02422F50E0FA013197EC30DF
:10340000F105D0F4EA5AFF4F0C947F2B20FF03C044
:10341000906490935D0280915D02829580935D023D
:1034200080E708C083FF05C087708295807F809306
:103430005D0280EA80935C02A2E1B2E0E3E5F2E0A3
:1034400022C080ECF7CF80EBF5CF80EDF3CF80EF9B
:10345000F1CF87EEEFCF89EEEDCF83FF02C09AEE7A
:1034600001C09BEE90935C02877008C084FF02C08D
:103470009DEE01C09CEE90935C028F7080935D0284
:10348000DBCF8EEED7CF8081982F9F7B903141F09C
:10349000903231F09FE1980F923010F0803A59F459
:1034A0008181882321F01D968C931D9704C01D9661
:1034B0008C911D97818333961F9652E0EF35F50767
:1034C00011F708952F923F924F925F926F927F92E1
:1034D0008F929F92AF92BF92CF92DF92EF92FF9224
:1034E0000F931F93CF93DF9380915202882309F4A7
:1034F00053C3F89480915F02882311F078944CC3F1
:1035000081E080935F027894809150029091510203
:103510000196909351028093500280914F0288232C
:1035200031F010925F02815080934F0235C3909129
:103530004E02992389F08091FD01811103C09150C1
:1035400090934E028F5F8093FD019091FC0189134F
:103550001EC31092FD011BC3312C2EEFE22E21E081
:10356000F22E02E112E033E5632E32E0732ED12C0D
:1035700046EE842E4FEB942EAA24A394B12C50E156
:10358000252ED301DC911196CC91C090FD018C2D9C
:1035900090E0DD3E39F42C2F30E08217930709F0DC
:1035A0007AC203C0892B09F032C1D3011296EC9183
:1035B000E7FF0CC080E2D8018C93D7018C93B3E075
:1035C000DB1204C0D8012C92D7012C92EF77EF3791
:1035D00009F449C0D80117968C91179782FD02C053
:1035E00016961C92D8011A968C911A9782FD02C0E9
:1035F00019961C92F0E0EE0FFF1FED58FF4DD033EF
:1036000011F0D03531F485919491F8019383828340
:103610002AC025913491D8011C963C932E931B9778
:10362000B3E0DB1601F1F8014684042C000C5508C8
:1036300040E050E0C501B4010E94262B240D351D49
:10364000D70112963C932E931197D23E09F49CC059
:1036500020F5D03B09F442C068F0D03D09F450C0D9
:10366000D13EB9F47FC0D23E09F48AC0B0F4D03B59
:10367000A9F150F4D03409F464C0D03709F468C01B
:10368000D03309F0B3C124C0D03DD1F1D13E09F40B
:1036900065C0D03C09F0AAC12BC0D73E09F492C046
:1036A00048F4D43E09F485C008F47BC0D53E09F443
:1036B00083C09CC1DB3E09F499C020F4DA3E09F4D2
:1036C00084C094C1DE3E09F49FC0D03FA1F18EC1F9
:1036D000CC2309F418C2F801C18315C280915202AB
:1036E000C81708F0C0E0C093FB011092FA0120C097
:1036F000C13208F0C0E2D801CC93F701C08303C205
:10370000311011C08091F901482F50E04F5F5F4F99
:103710002091520230E04217530714F48F5F01C02A
:1037200080E08093FB01C03408F0C0E0C093FA0150
:1037300033243394E8C1C13208F0E5C1C093FC01E1
:10374000E2C1CC2309F4ABC1D8011596CC93A7C133
:10375000CC2309F4C9C1F801C087C6C1F3E0DF1664
:1037600009F4DDC1D8011B962D913C911C972C1BAF
:1037700031092C31310508F087C02CE130E084C0DC
:10378000B3E0DB1609F4CBC1F801238534852C0F97
:10379000311D2136FDE03F0708F44FC020E63DE033
:1037A0004CC081E0C11101C080E0D80114968C9317
:1037B000AAC1F801C783A7C1C3FDC051D8011E9695
:1037C000CC93A1C1F801C2879EC1D8018C91D0E0F1
:1037D000C80FD11D87FDDA95C132D10514F0C0E2C2
:1037E000D0E0F801C083D701CC938DC1D8018C9172
:1037F000082E000C990B8C1B910997FF02C080E0EA
:1038000090E0F80180837DC1C0934E027CC1D0322C
:1038100051F1DC3E09F44DC0D03109F04FC0B3E0A6
:10382000DB1609F47CC1F801238534852C1B310992
:103830002C31310510F42CE130E0D8011C963C937A
:103840002E931B971E96CC910C2E000CDD0B40E0A6
:1038500050E0C501B4010E94262BC20FD31FF7010F
:10386000D283C18350C1F3E0DF1609F458C1D801F7
:103870001B962D913C911C972C0F311D2136BDE0DC
:103880003B0710F020E63DE0F80134872387C6852A
:103890000C2E000CDD0B40E050E0C501B4010E948D
:1038A000262BC20FD31FD7011296DC93CE9311970C
:1038B0002AC1CC1128C1F701108225C1F3E0DF161F
:1038C00009F470C0D03331F0D03521F0D03609F48E
:1038D0006CC073C0D8011B968D919C911C97129659
:1038E0002D913C91139711964C918217930750F4A8
:1038F000840F911D2817390708F4C901F80194872E
:1039000083870BC0841B91098217930708F4C901B0
:10391000D8011C969C938E931B97F80124814684B2
:1039200083859485222379F1042C000C550843E704
:1039300050E2FA01659174914E5F5F4FFA01259153
:1039400034918617970768F48217930750F0AB01FC
:10395000481B590B821B930B8417950730F09B0172
:1039600004C0F0E2413D5F0721F740E050E0C501AF
:10397000B4010E94262B240D351DD70112963C93CD
:103980002E9311970FC09C0140E050E0C501B40197
:103990000E94262B042C000C5508240D351DF70120
:1039A00032832183D03509F091CF8C2F807F41F471
:1039B000D8018C918C1B8C9303C0D03AB9F4F5CF0D
:1039C0008C2F8F7039F4F80190818C2F82958F7035
:1039D000890F8083D8018C91813214F080E202C07B
:1039E00087FD80E0F8018083D7018C93D11153C00B
:1039F000B3E0DB1609F487C0E2E0EC1518F4CA94D2
:103A0000CA94FACFC11018C0D8011B962D913C91D1
:103A10001C9740E050E0C501B4010E94262BF8013C
:103A20008685082E000C990B280F391FD701129696
:103A30003C932E93119767C0CC2309F464C0F8011E
:103A40004684042C000C5508F1E0CF1201C0C29549
:103A5000CF70D8011B962D913C911C9783E790E283
:103A600060E0FC01459154912417350720F46F5F05
:103A700002966335B1F7EC2FF0E0E60FF11DE0336D
:103A8000F10514F0EFE2F0E0EE0FFF1FED58FF4DEF
:103A9000259134911BC08D2F8F7D803419F563E003
:103AA000D61689F1D8011E964C901E97042C000C56
:103AB00055081B96CD91DC911C97C80105960E9474
:103AC0007E18C80FD11D87FDDA959E0140E050E0B9
:103AD000C501B4010E94262B240D351DF701328348
:103AE000218311C0D03779F4D801CC91C801089650
:103AF0000E947E188C0F18160CF04CC081320CF00E
:103B000080E2D7018C93015F1F4FB3E06B0E711CF5
:103B1000E5E0EE0EF11CD394F4E0DF1232CD80919B
:103B2000FD018F5F8093FD019091FC01891302C01C
:103B30001092FD018091FD01811129C08091F80151
:103B40008F5F803419F08093F8010DC01092F80156
:103B50008091F9018F5F8093F9019091520289174A
:103B600010F01092F9018091FB018F3F29F08093B2
:103B7000F9018FEF8093FB018091FA018F3F29F0CB
:103B80008093F8018FEF8093FA010E940E19109232
:103B90005F0202C080E0B5CFDF91CF911F910F91FE
:103BA000FF90EF90DF90CF90BF90AF909F908F905D
:103BB0007F906F905F904F903F902F900895CF939C
:103BC000DF93FC01A281B381109731F0848195814C
:103BD00015969C938E931497C481D581209711F0EC
:103BE000BB83AA831382128215821482DF91CF9144
:103BF00008954091680250916902209166023091C7
:103C0000670242175307B4F49091E8009570E1F30E
:103C10009091E80092FD19C08093F10080916802B4
:103C20009091690201968F739927892B19F48EEF71
:103C30008093E800809168029091690201969093C8
:103C400069028093680281E0089580E00895DF9220
:103C5000EF92FF920F931F93CF93DF93D82E8A0199
:103C60007B01E40EF51EEB01CE15DF0571F0D7FEEA
:103C700003C0FE01849101C088810E94F91D219634
:103C80008111F2CF8FEF9FEF01C0C801DF91CF917B
:103C90001F910F91FF90EF90DF900895615030F0E9
:103CA0002091F100FC0120830196F8CF289884E64A
:103CB000809371020895CF92DF92EF92FF920F935B
:103CC0001F93CF93DF936C017A018B01C0E0D0E0AA
:103CD000CE15DF0581F0D8016D918D01D601ED91F2
:103CE000FC910190F081E02DC6010995892B11F01E
:103CF0002196EECF7E01C701DF91CF911F910F91E9
:103D0000FF90EF90DF90CF900895CF93DF931F92B5
:103D1000CDB7DEB76983DC01ED91FC910280F381C0
:103D2000E02D41E050E0BE016F5F7F4F09950F909D
:103D3000DF91CF91089583E08093E9008091F200B4
:103D4000882319F08AE38093E8000895FC018485B4
:103D5000958597FD0BC09FB7F89482E08093E900AA
:103D60008091F2009FBF90E0019608959FB7F8946C
:103D700082E08093E9008091F2009FBF90E0089577
:103D800008950E94A62C0F931F93CF93DF931F9249
:103D9000CDB7DEB782E0898342E450E069EB71E29F
:103DA00080E80E94271E0E944A28DC0112960D918D
:103DB0001C9113970115110589F0D801ED91FC9123
:103DC0000280F381E02DBE016F5F7F4FC80109952E
:103DD00097FD04C0F80100851185ECCF89810F9013
:103DE000DF91CF911F910F9108958F929F92AF9283
:103DF000BF92CF92DF92EF92FF920F931F93CF93D8
:103E0000DF936C017B018A0180911201882309F400
:103E10005CC080917202882309F457C080916102CE
:103E200080FF05C08091E00082608093E000E8019F
:103E3000B12C8AEFA82E93E0892E2AE3922E2097A8
:103E400011F4BB20D9F10E94392881110AC0AA942B
:103E5000AA20D9F161E070E080E090E00E945E2845
:103E6000EECF282F30E0C217D3070CF48C2F9FB76A
:103E7000F8948092E9002091E80025FF1DC0282FCA
:103E800030E0C21BD30BF701815020F041914093E9
:103E9000F100FACFE20EF31EBB2019F09092E80079
:103EA0000AC08091E80085FD07C09092E800BB241D
:103EB000B394209709F0B12C9FBFC1CF5D9884E6E1
:103EC00080936B021016110644F081E090E0F60139
:103ED0009383828380E090E001C0C801DF91CF919D
:103EE0001F910F91FF90EF90DF90CF90BF90AF9018
:103EF0009F908F9008950E94392890E008950F9325
:103F00001F93CF93DF931F92CDB7DEB78C01FC01D7
:103F10008485958597FF0EC0CE0101960E940B28DF
:103F2000019719F4898190E002C08FEF9FEFF801AB
:103F300095878487F801848595850F90DF91CF91CF
:103F40001F910F910895CF93DF931F92CDB7DEB7E6
:103F5000FC018485958597FD05C02FEF3FEF3587E0
:103F600024870BC0CE0101960E940B28019719F4FB
:103F7000898190E002C08FEF9FEF0F90DF91CF918A
:103F80000895EF920F931F93CF93DF93FC019681D7
:103F90006A3031F4858184836185960F968337C0BA
:103FA000262FEF01848161E0690F2A3340F420332A
:103FB00078F4213279F02E32F9F425E20CC0213464
:103FC000D8F02B3518F02F35E9F016C0215403C076
:103FD000265101C024E23F81062E000C770B082EEB
:103FE000000C990B313081F44AEFE42E00E010E030
:103FF0004BE151E20E94E82588858C5F9C81890F06
:104000008C8305C026E2E7CF3BEFE32EEFCF81E0C4
:1040100090E0DF91CF911F910F91EF9008953FB7FE
:10402000F89480916D0290916E02A0916F02B09110
:10403000700226B5A89B05C02F3F19F00196A11D5F
:10404000B11D3FBFBA2FA92F982F8827820F911D2E
:10405000A11DB11DBC01CD0142E0660F771F881F75
:10406000991F4A95D1F708951F920F920FB60F929C
:1040700011242F933F938F939F93AF93BF9380917E
:10408000620290916302A0916402B0916502309146
:104090006C0223E0230F2D3720F40196A11DB11DE2
:1040A00005C026E8230F0296A11DB11D20936C02C6
:1040B0008093620290936302A0936402B0936502BE
:1040C00080916D0290916E02A0916F02B09170028A
:1040D0000196A11DB11D80936D0290936E02A09375
:1040E0006F02B0937002BF91AF919F918F913F91FA
:1040F0002F910F900FBE0F901F9018951F920F9247
:104100000FB60F9211248F939F938091E1009091AD
:10411000E100937F9093E10083FF0FC01092E900CC
:1041200091E09093EB001092EC0092E39093ED00FD
:104130001092720298E09093F00082FF20C093E00A
:104140009093E9009091F200992319F09AE39093EB
:10415000E80090916B02992339F090916B02915095
:1041600090936B02992389F190917102992339F010
:1041700090917102915090937102992341F184FFC3
:1041800010C08091E2008E7E81608093E200809179
:10419000E1008F7E8093E100809161028E7E8061DC
:1041A00011C080FF16C08091E2008E7E80618093F6
:1041B000E2008091E1008E7E8093E10080916102B7
:1041C0008E7E81608093610204C05D9ACDCF289A73
:1041D000D6CF9F918F910F900FBE0F901F90189583
:1041E0001F920F920FB60F921124CF92DF92EF928F
:1041F000FF920F931F932F933F934F935F936F9370
:104200007F938F939F93AF93BF93EF93FF93CF933E
:10421000DF93CDB7DEB76C97DEBFCDBF1092E9005C
:104220008091E80083FFFBC168E0CE0145960E94C3
:104230004E1E82EF8093E8008D8987FF05C0909124
:10424000E80090FFFCCF03C09EEF9093E800982F0A
:10425000907609F0C6C09E894F89588D2F89F88CB9
:1042600091110CC0803829F4809160028093F10094
:1042700002C01092F1001092F10045C1913051F44A
:10428000811141C14130510509F03DC18091600269
:104290008D7F0BC0933061F4811135C141305105E0
:1042A00009F031C1809160028260809360022BC16D
:1042B000953049F48091E80080FFFCCF822F806820
:1042C0008093E30020C1963009F05EC00B8D1C8DF9
:1042D00022E01092E9001092690210926802F21234
:1042E00032C010926702109266020E94C31E99E0CB
:1042F000BE016F5F7F4FDB01E92F1D92EA95E9F761
:104300009983FA8291E09E8390EA98879AEF998741
:104310002091680230916902275F3F4F3C832B83D5
:104320008D831092E9001092690210926802109336
:1043300067020093660249E050E080E00E94271E79
:104340000E94C31EE0C010936702009366020E94A1
:104350004A28DC0112960D911C9113970115110545
:1043600009F4BBC0D801ED91FC910480F581E02DEA
:10437000BE016B5E7F4FC8010995009709F0C7C069
:10438000F80100851185EACF973009F445C19830CE
:1043900021F481E08093F100B6C0993009F0B3C0F8
:1043A000837009F039C1E0E6F1E081E031E096E3A5
:1043B0002081211109C08EE78093EA001092EA0063
:1043C0008F89809372029FC08093E9003093EB0045
:1043D00021912093EC009093ED008F5F873041F79F
:1043E000EACF8B8D9C8D1092E90010926902109299
:1043F00068029093670280936602898D811153C091
:104400008E899D89913A49F4813209F005C147E0CE
:1044100050E06BE071E080E0BBC0913209F0FCC07D
:10442000833269F48F89988DA0E0B0E08093070112
:1044300090930801A0930901B0930A0164C08032EF
:1044400069F48091E80082FFFCCF67E08BE091E0A7
:104450000E944E1E8BEF8093E80055C0823209F017
:1044600052C08F8980931201EEEFFFE785919491FE
:104470008B3F9C4D19F0E0E0F8E002C0EEEFFAE06F
:1044800080910B0190910C01A0910D01B0910E0152
:10449000803B9440A105B10509F09EC080911201B6
:1044A00080FF79C099C00E944A28FC0102811381D3
:1044B0000115110509F4B0C0D801ED91FC910190EE
:1044C000F081E02DBE016B5E7F4FC801099581111F
:1044D0001AC0F80100851185EBCFF1E0FF1609F451
:1044E0004EC0F3E0FF1298C08F89882309F44AC0B8
:1044F000823089F440E867E08DE192E20E94D129A0
:10450000882309F489C08EEF8093E80088C01816CC
:104510001906CCF381C0813029F440E86BE081E1D9
:1045200092E2ECCF833009F077C00E944A28DC0188
:104530001296ED90FC9013978E010F5F1F4F68014C
:10454000E114F10479F0D701ED91FC910680F78137
:10455000E02DB801C7010995080F111DF701E0848E
:10456000F184EECFD8011C92F60101900020E9F70A
:104570003197BF016C197D0940E0C601BFCF6FEFD5
:1045800071E202C06BEF71E2FB01449150E080E800
:104590000E94271EB8CFEE3F2AE0F20751F080813B
:1045A00091818737A7E79A0721F09093FF0A8093BC
:1045B000FE0A87E797E7918380838091600080936C
:1045C0006A029BE088E10FB6F894A895809360009A
:1045D0000FBE9093600097CF808191818737974776
:1045E00009F091CFA8958091600088618093600068
:1045F00080916A0280936000EE3FBAE0FB0739F0D9
:104600008091FE0A9091FF0A918380837CCF109263
:10461000FF0A1092FE0A77CF81E28093EB006C963E
:104620000FB6F894DEBF0FBECDBFDF91CF91FF91E3
:10463000EF91BF91AF919F918F917F916F915F911A
:104640004F913F912F911F910F91FF90EF90DF902D
:10465000CF900F900FBE0F901F901895BC0180E077
:1046600090E00C945E288FB18095807F669B886077
:104670001C9B8460089580389105C0F460347105F6
:10468000A8F490E121E061FD24E060FD220F62FDCD
:104690002295687F969FD0011124A80FA156BD4F87
:1046A0008C91822B411101C082278C930895009731
:1046B00069F0FC0101900020E9F73197AF01481B38
:1046C000590BBC0185ED98E00C945B1E80E090E0F6
:1046D00008954F925F926F927F928F929F92AF92C6
:1046E000BF92CF92DF92EF92FF920F931F93CF93DF
:1046F000DF93EC017B01E81AF90A3701F7FE04C0E9
:10470000662477246E187F0880E4681671045CF0D4
:104710006C177D070CF040C05E014B0160E070E05B
:10472000C0E4D0E005C030E4A32EB12C812C912C44
:104730007501E818F9082B014C1A5D0A57FE03C0F1
:104740005194419451088701F7FE02C00F5F1F4F3B
:1047500015950795C617D7076CF18FEFC82E880FF0
:10476000DD08A814B90444F141E080E4681671043E
:104770001CF4B401CE0102C0BE01C4010E943B235F
:104780000419150917FF04C0CC0DDD1D0E0D1F1DEA
:104790008FEF881A980AE5CF8701F7FE02C00F5FF6
:1047A0001F4F159507954E015B0190E4492E512C42
:1047B000C0E0D0E081E0D2CFDF91CF911F910F9187
:1047C000FF90EF90DF90CF90BF90AF909F908F9031
:1047D0007F906F905F904F900895EFE9F2E0A0E036
:1047E000B8E000800EBC8111012C1197A0FDFDCF17
:1047F0000192B9F70DB408950F931F93CF93DF93F0
:104800008C01C0E0D0E0F801EC0FFD1F649166233D
:1048100041F085ED98E00E94C11F892B11F021968F
:10482000F2CFCE01DF91CF911F910F9108950C949B
:10483000572380E0EFE9F2E081118FEF00248193AC
:104840008193819381930394D1F708952091E50892
:10485000282329F49091E408982381E009F480E06A
:104860000895CF92DF92EF92FF920F931F93CF9311
:10487000DF938C01EB01D801ED91FC9111978491AC
:104880008F3F09F480C0E0909D02F0909E02E114F9
:10489000F10409F47FC084919F012E5F3F4F2D9357
:1048A0003C933196E491803139F198F48430E1F011
:1048B000883051F1811170C020919802269526957B
:1048C00088819981E29F800D911D112499838883AD
:1048D000D2CF8034A9F0803859F0803209F05CC022
:1048E00027E432E29EE113C02DEA32E29EE60FC0D9
:1048F0002BE832E29EE30BC029E632E29EE207C0DB
:1049000025E232E29EE403C02FEC32E29EE5D701BD
:10491000ED91FC91A0919802B4E0AB9FB0011124FD
:1049200048815981C0908802D09089024C195D0954
:10493000461B570B9283AA0FAA0FA38335832483A8
:104940005087478372876187148613868587F701AE
:104950008281938190939E0280939D02C7010E9461
:10496000DF1DE0919B02F0919C02D7011396FC930E
:10497000EE931297309711F0F582E482F0929C0248
:10498000E0929B0278CF8881998190938F028093E7
:104990008E0202C081E001C080E0DF91CF911F91C3
:1049A0000F91FF90EF90DF90CF9008956DE170E050
:1049B0008DE190E00E9469236EE770E08EE790E061
:1049C0000C946923CF92DF92EF92FF920F931F9383
:1049D000CF93DF93CDB7DEB7A1970FB6F894DEBFC4
:1049E0000FBECDBF282F30E040E050E019A28E016D
:1049F0000F5D1F4F8AE0C82ED12CE12CF12CCA018B
:104A0000B901A70196010E94262B605DF80162930F
:104A10008F01211531054105510589F7CF010E940C
:104A20005723A1960FB6F894DEBF0FBECDBFDF911E
:104A3000CF911F910F91FF90EF90DF90CF9008954D
:104A40006F927F928F929F92AF92BF92CF92DF929E
:104A5000EF92FF920F931F93CF93DF93782E662EE2
:104A6000E62EF12CC0E0D0E0C82ED12C470120E288
:104A7000820E911C5601AC0EBD1ECA30D105A9F0A4
:104A80008701C40121E48216910414F080E490E0CF
:104A90000817190744F440E0B801C5010E943B2300
:104AA0000F5F1F4FEECF2196E5CF7092DA0870921C
:104AB000D9086092DB08809173020E94E22483E1AE
:104AC00091E00E941724809174020E94E22483E105
:104AD00091E00E941724809175020E94E22483E1F4
:104AE00091E00E94172480917702DF91CF911F916E
:104AF0000F91FF90EF90DF90CF90BF90AF909F907D
:104B00008F907F906F900C94E2249C01240F311DB4
:104B10001216130674F5803891055CF597FF02C0F4
:104B200080E090E02138310514F020E830E0281BC7
:104B3000AB014770552731E001C0330F4A95EAF7C2
:104B400077FF02C0695F7F4F43E0759567954A958F
:104B5000E1F77695762F662777956795860F971FED
:104B6000FC01E156FD4F215020F08081832B819381
:104B7000FACF08950F931F93CF93DF93EC014EE08C
:104B800061E070E00E9485254EE06EE070E0CE01AD
:104B90000E94852501E010E041E0B801CE010E94AD
:104BA0003B230F5F1F4F0F301105B1F72D9601E02A
:104BB00010E041E0B801CE010E943B230F5F1F4F80
:104BC0000F301105B1F7DF91CF911F910F9108952B
:104BD0004F925F926F927F928F929F92AF92BF920D
:104BE000CF92DF92EF92FF920F931F93CF93DF93B9
:104BF00000D000D0CDB7DEB7DC01CB015A014801AF
:104C00007E2D4115510509F4F1C1FA0164913196E7
:104C10005491F2E0AF0EB11CC62ED12C2223F9F034
:104C2000E1E0F0E0352F377011F4E0E0F0E0352FEF
:104C3000369536953695E30FF11DEC9D8001ED9D7F
:104C4000100DFC9D100D1124733011F4000F111F75
:104C5000209FF001219FF00D1124AE0EBF1E7F3F5B
:104C600031F48114910411F071E001C072E0FD0192
:104C7000EC0DFD1D1E161F060CF0B8C1A038B105C5
:104C80000CF0B4C19C01250F311D121613060CF057
:104C9000ADC1803491050CF0A9C1A114B10409F48F
:104CA000A5C1382F37708C0197FF02C0095F1F4FD5
:104CB00023E0159507952A95E1F7202F97FF04C06B
:104CC000332311F02FEF200FB7FF05C00027112766
:104CD0000A1B1B0B02C000E010E0E038F1051CF0DD
:104CE00090E89A1B01C0962F901BE22E022E000C1A
:104CF000FF082F3F1CF47E2C709401C0712CF1E052
:104D0000852F877009F4F0E0569556955695F50F66
:104D1000EF0EF11C49E0E416F10414F0F8E0F21B88
:104D2000F719270D50E82503A00DB11D1124A00F80
:104D3000B11F679D000D111D1124A501400F511FCA
:104D4000AA24A394B12C032E02C0AA0CBB1C0A9463
:104D5000E2F7733009F402C1C0F4713009F4B6C04F
:104D6000723009F043C18FEF8A9D80018B9D100D39
:104D70001124009510951C830B839C80BD01615606
:104D80007D4F2B018F2E820E2AC07A3FD9F17B3FB7
:104D900009F02CC1BD0161567D4F4B01FF2EF20E73
:104DA00083C084918A9D70018B9DF00C1124FA823E
:104DB000E98227FD05C0DB018C918023E82AEC9273
:104DC000311113C031966F5F7F4F8E2F841B89176F
:104DD00040F32F5F4C0D5D1DB0E84B0E511C2815A4
:104DE00009F404C1B201FA01F0CF27305CF77B016E
:104DF000B0E8EB0EF11CD7018C9189217A808729CC
:104E00008C93E0CFBD0161567D4F4B01FF2EF20E1A
:104E10002F1509F4EBC0B401FA018E2F841B8917FA
:104E2000F0F484918A9D80018B9D100D11241A83CA
:104E3000098327FD04C0DB018C91082B0C933323DD
:104E400051F0273044F48B0100581F4FD801EC90EB
:104E50008A818E298C9331966F5F7F4FDECF2F5FD3
:104E60004C0D5D1DB0E88B0E911CD2CF84918A9DB4
:104E7000B0018B9D700D11247A83698327FD05C0D5
:104E80006095D8018C9168236C93311113C03196D1
:104E90000F5F1F4F8E2F841B891740F32F5F4C0D20
:104EA0005D1DB0E88B0E911C2F1509F49FC0840185
:104EB000FA01F0CF27305CF7B80160587F4F8A8144
:104EC0008095DB01EC908E218C93E1CF080D191DAC
:104ED000A156BD4F7F2E720E271509F487C0BD0164
:104EE000E12CF12CE91690F5F801EE0DFF1DE4918F
:104EF000EA9D4001EB9D900C1124809490949C823B
:104F00008B82FA01EE0DFF1DE491EA9D2001EB9DDD
:104F1000500C11245A82498227FD05C0FB01808173
:104F2000882248284082332359F027304CF4FB0173
:104F3000E058FF4F90808C8189219A808929808355
:104F4000FFEFEF1AFF0A6F5F7F4FCCCF2F5F4C0D43
:104F50005D1D0C0D1D1DA058BF4FBECFE92EF12CBD
:104F60002801440E551EA156BD4F60E870E04B016C
:104F70008E189F08CE18DF08CC0CDD1C792E022F6E
:104F80001E2D2F2FF201A401B601632ECF93DF93C4
:104F9000ED01EF96EF9622968590C590662059F028
:104FA0008A9C4001CA9C600107302CF4E880D094B0
:104FB000ED20E928E99200233AF0EC90C094EC202F
:104FC000E828ED920C94E52711961A9529F72A9571
:104FD00051F0172D03951124E60FF11DA40FB11DFB
:104FE000C40FD11DD9CFDF91CF9111240F900F9015
:104FF0000F900F90DF91CF911F910F91FF90EF9045
:10500000DF90CF90BF90AF909F908F907F906F90E8
:105010005F904F90089520917202211103C08FEF8D
:105020009FEF08955FB7F89422E02093E900209164
:10503000F20030E01216130614F421E030E0422FA3
:10504000FC0184E6415038F02898809371029091D9
:10505000F1009193F7CF2115310521F08091F200F5
:10506000882319F05FBFC90108958BE68093E8009B
:10507000F9CF2FB7F89483E08093E9009091E8008E
:10508000892F807295FF04C09091F20080E4891B03
:105090002FBF08958091EE0881110DC082E08093AA
:1050A000EA0884E08093EB081092ED081092EC0877
:1050B00081E08093EE088AEE98E008958F929F92A7
:1050C000AF92BF92CF92DF92EF92FF926B017C0181
:1050D0000E940F204B015C01C114D104E104F104D2
:1050E000F1F00E940F20DC01CB0188199909AA096F
:1050F000BB09883E9340A105B10570F321E0C21AB7
:10510000D108E108F10888EE880E83E0981EA11C02
:10511000B11CC114D104E104F10419F7DDCFFF90F3
:10512000EF90DF90CF90BF90AF909F908F900895B9
:10513000CF93DF93CDB7DEB769970FB6F894DEBF94
:105140000FBECDBF789484B5826084BD84B5816084
:1051500084BD85B5826085BD85B5816085BD809142
:105160006E00816080936E001092810080918100BA
:1051700082608093810080918100816080938100B2
:105180008091800081608093800080919100826096
:105190008093910080919100816080939100809133
:1051A00090008160809390008091C1008460809322
:1051B000C1008091C10082608093C1008091C100D4
:1051C00081608093C1008091C30081608093C3009F
:1051D0008091C00082608093C0008091C200816095
:1051E0008093C20080917A00846080937A008091DD
:1051F0007A00826080937A0080917A008160809347
:105200007A0080917A00806880937A008FEF9FEF18
:105210009093AC068093AB061092720210926002DB
:10522000109261028091D70081608093D70080EA5C
:105230008093D80089B5806189BD89B5826089BDB8
:1052400009B400FEFDCF61E070E080E090E00E94D4
:105250005E288091D8008F7C80618093D8008091F7
:10526000E000807F8093E0008091E1008E7E80935B
:10527000E1008DE08093E200559A209A87E591E065
:10528000988B8F878BE491E09A8B898B8FE391E0E9
:105290009C8B8B8B83E391E09E8B8D8B87E291E0DF
:1052A000998F888F1C821B821A821982CE010F96D9
:1052B0009E838D839E012F5E3F4F38872F832E5F05
:1052C0003F4F3A8729872E5F3F4F3C872B872D5FC3
:1052D0003F4F3E872D870E948A16EB81FC813296D4
:1052E000EE0FFF1F81E090E08C0F9D1FE80FF91F6C
:1052F00080819181DC01ED91FC910190F081E02DA4
:105300000995882351F389819A812B813C818217E9
:105310009307B9F0FC013296EE0FFF1F81E090E099
:105320008C0F9D1FE80FF91F80819181DC01ED91A9
:10533000FC910280F381E02D099589819A819C83FB
:105340008B83EB81FC813296EE0FFF1F81E090E0B2
:105350008C0F9D1FE80FF91F80819181DC01ED9179
:10536000FC910680F781E02D09959A8389832B8132
:105370003C818217930709F4B0CFF9013296EE0F02
:10538000FF1F81E090E08C0F9D1FE80FF91F8081C7
:105390009181DC01ED91FC910480F581E02D09956E
:1053A0009CCFDF92EF92FF920F931F93CF93DF93E7
:1053B000D82EF92EE42E062F10E0C8010196880F92
:1053C0000E94F91D83E00E94F91DCD2DDF2D0C0FE9
:1053D0001D1FC017D10789F0E7FE03C0FE018491AD
:1053E00001C088810E94F91DF82E80E00E94F91DFD
:1053F0008F2121968111EDCF01C081E0DF91CF9106
:105400001F910F91FF90EF90DF9008951092A206E8
:105410001092A10688EE93E0A0E0B0E08093A3068E
:105420009093A406A093A506B093A6068AE691E001
:105430009093A00680939F068FEF9FEF9093AC060A
:105440008093AB068CE791E09093F0068093EF0693
:105450001092F4061092F3061092F2061092F106E2
:10546000E5E4F8E085ED98E0118210821382128263
:105470001582148236968E179F07B1F7E5EFF6E096
:1054800085E498E024E931E031832083128213829D
:10549000158214821682128611861086178214864F
:1054A000138615863E968E179F0771F788EA91E05E
:1054B0009093E0088093DF081092E4081092E508CA
:1054C00080E18093E6081092E3081092E2081092BF
:1054D000E8081092D8081092D7088CE991E09093D0
:1054E000D6088093D50888E08093DE0881E0809319
:1054F000DD081092DA081092DB081092D908809328
:10550000DC0808958F929F92AF92BF92CF92DF9264
:10551000EF92FF92CF93DF93EC01688179818A81CA
:105520009B81611571058105910521F464E279ED96
:105530008BE597E02DE133EF41E050E00E94F42A43
:1055400049015A019B01AC01A7EAB1E40E94132B67
:105550006B017C01ACEEB4EFA50194010E94212BFC
:10556000DC01CB018C0D9D1DAE1DBF1DB7FF03C01F
:105570000197A109B04888839983AA83BB839F7749
:10558000DF91CF91FF90EF90DF90CF90BF90AF90E1
:105590009F908F9008950E94822A089585E191E05E
:1055A0000E94822A0895A0E0B0E0809315019093B4
:1055B0001601A0931701B09318010895F999FECF31
:1055C00092BD81BDF89A992780B50895262FF99943
:1055D000FECF1FBA92BD81BD20BD0FB6F894FA9AD6
:1055E000F99A0FBE01960895052E97FB1EF40094BC
:1055F0000E940B2B57FD07D00E94262B07FC03D0DF
:105600004EF40C940B2B50954095309521953F4FBF
:105610004F4F5F4F089590958095709561957F4F9E
:105620008F4F9F4F08950E94482BA59F900DB49FC8
:10563000900DA49F800D911D11240895B7FF0C9427
:10564000132B0E94132B821B930B0895A1E21A2E99
:10565000AA1BBB1BFD010DC0AA1FBB1FEE1FFF1F16
:10566000A217B307E407F50720F0A21BB30BE40B66
:10567000F50B661F771F881F991F1A9469F76095AD
:105680007095809590959B01AC01BD01CF01089567
:10569000A29FB001B39FC001A39F700D811D112473
:1056A000911DB29F700D811D1124911D0895AA1B9B
:1056B000BB1B51E107C0AA1FBB1FA617B70710F0FD
:1056C000A61BB70B881F991F5A95A9F7809590952F
:1056D000BC01CD01089597FB072E16F4009407D066
:1056E00077FD09D00E94572B07FC05D03EF490951A
:1056F00081959F4F0895709561957F4F0895EE0FA6
:10570000FF1F0590F491E02D09940F931F93CF9301
:10571000DF938230910510F482E090E0E091F80888
:10572000F091F90820E030E0A0E0B0E0309719F106
:10573000408151810281138148175907C8F08417AD
:10574000950769F4109731F012960C9312971396FF
:105750001C9327C00093F8081093F90822C0211564
:10576000310519F04217530718F49A01BD01EF01F2
:10577000DF01F801DBCF21153105F9F0281B390BCA
:105780002430310580F48A819B816115710521F0F7
:10579000FB019383828304C09093F9088093F808F7
:1057A000FE01329644C0FE01E20FF31F81939193F4
:1057B00022503109398328833AC02091F60830916C
:1057C000F708232B41F420911B0130911C013093E9
:1057D000F7082093F6082091190130911A0121153C
:1057E000310541F42DB73EB740911D0150911E0186
:1057F000241B350BE091F608F091F708E217F30748
:10580000A0F42E1B3F0B2817390778F0AC014E5F30
:105810005F4F2417350748F04E0F5F1F5093F7086E
:105820004093F6088193919302C0E0E0F0E0CF014D
:10583000DF91CF911F910F910895CF93DF93009740
:1058400009F481C0FC01329713821282A091F808FA
:10585000B091F908109781F420813181820F931F54
:105860002091F6083091F7082817390751F5F09381
:10587000F708E093F60867C0ED0120E030E0CE17AE
:10588000DF0740F44A815B819E0141155105F1F02B
:10589000EA01F5CFD383C28340815181840F951FE4
:1058A000C817D90759F488819981840F951F0296EA
:1058B000918380838A819B81938382832115310523
:1058C00029F4F093F908E093F8083DC0E901FB835F
:1058D000EA8349915991C40FD51FEC17FD0761F474
:1058E00080819181840F951F0296E90199838883B5
:1058F000828193819B838A83E0E0F0E012968D9110
:105900009C911397009719F0FD01DC01F7CF8D9161
:105910009C9111979D012E5F3F4F820F931F209105
:10592000F6083091F7082817390769F4309729F4F9
:105930001092F9081092F80802C013821282B093F4
:10594000F708A093F608DF91CF91089581E090E0E9
:0A595000F8940C94AB2CF894FFCFF0
:10595A008002800280CF00FFFFFFFF00E10000000D
:10596A000000000A00010000000000FA0880007729
:10597A001E601E00000000A711E7183118D4180095
:10598A00000000A711E6113118531400000000A707
:10599A001164163118401400000000A711E61131F5
:1059AA0018E91100000000A7118A163118A4110085
:1059BA00C1808100000000000000851EF51E7B1FCB
:1059CA009B1EA61EA31F7F1F000000000D197C1836
:1059DA003D18351800000000C11EC11EC11EC11E9F
:1059EA0000000000B5184B1800000000C11F5B1E24
:1059FA003218311800000000C01E302E342E30003C
:00000001FF
